:100000000A128A11FC2F00308A000408840A820731
:1000100000343F3406345B344F3466346D347D3401
:0600200007347F346F3449
:100E300083120313060CF000700C0139F2008230AB
:100E4000F100DD30F000F00B232FF10B232F282FC2
:100E500083120313060CF000700C0139F3007208C2
:100E60007306031D342F352F372F7308382FFF30AB
:100E700008000730831603139F000615851005111F
:100E800085110512851209108910F701F50100304E
:100E90000A128A1177270A128A110A128A11182750
:100EA0000A128A11F600760A0319572F582F4D2F70
:100EB0007508031D5C2F5D2F712F7603031D612FB5
:100EC000622F712F0130F7070A307706031D692F53
:100ED0006A2F6B2FF70177080A128A1177270A12F7
:100EE0008A117608F5004D2F0A128A110028F300A6
:100EF0000A307302031C7D2F7E2F7F2FFB2F730878
:100F0000013E84000A128A1103200A128A11F2009B
:100F10007209F4007F30F40574080139F000F00D17
:100F20008312031305087006FD39700685007408E6
:100F3000F0000310700C0139F100F10DF10D0508FE
:100F40007106FB39710685007408F0000230031049
:100F5000F00CFF3E031DA72F70080139F100F10DC1
:100F6000F10DF10D05087106F73971068500740859
:100F7000F00003300310F00CFF3E031DBA2F700881
:100F80000139F100F10E05087106EF39710685008F
:100F90007408F00004300310F00CFF3E031DCB2F4B
:100FA00070080139F100F10EF10D05087106DF3905
:100FB000710685007408F00005300310F00CFF3E48
:100FC000031DDD2F01307005F10009087106FE399F
:100FD000710689007408F00006300310F00CFF3E23
:100FE000031DED2F70080139F100F10D090871069C
:100FF000FD3971068900080083010A128A11392F10
:02400E00793FF8
:00000001FF
